{
  "_format": "hh-sol-artifact-1",
  "contractName": "TodoContract",
  "sourceName": "contracts/TodoContract.sol",
  "abi": [
    {
      "anonymous": false,
      "inputs": [
        {
          "indexed": false,
          "internalType": "string",
          "name": "task",
          "type": "string"
        },
        {
          "indexed": false,
          "internalType": "uint256",
          "name": "taskNumber",
          "type": "uint256"
        }
      ],
      "name": "TaskCreated",
      "type": "event"
    },
    {
      "anonymous": false,
      "inputs": [
        {
          "indexed": false,
          "internalType": "uint256",
          "name": "taskNumber",
          "type": "uint256"
        }
      ],
      "name": "TaskDeleted",
      "type": "event"
    },
    {
      "anonymous": false,
      "inputs": [
        {
          "indexed": false,
          "internalType": "string",
          "name": "task",
          "type": "string"
        },
        {
          "indexed": false,
          "internalType": "uint256",
          "name": "taskId",
          "type": "uint256"
        },
        {
          "indexed": false,
          "internalType": "bool",
          "name": "isComplete",
          "type": "bool"
        }
      ],
      "name": "TaskIsCompleteToggled",
      "type": "event"
    },
    {
      "anonymous": false,
      "inputs": [
        {
          "indexed": false,
          "internalType": "string",
          "name": "task",
          "type": "string"
        },
        {
          "indexed": false,
          "internalType": "uint256",
          "name": "taskId",
          "type": "uint256"
        }
      ],
      "name": "TaskUpdated",
      "type": "event"
    },
    {
      "inputs": [
        {
          "internalType": "string",
          "name": "_taskName",
          "type": "string"
        }
      ],
      "name": "createTask",
      "outputs": [],
      "stateMutability": "nonpayable",
      "type": "function"
    },
    {
      "inputs": [
        {
          "internalType": "uint256",
          "name": "_taskId",
          "type": "uint256"
        }
      ],
      "name": "deleteTask",
      "outputs": [],
      "stateMutability": "nonpayable",
      "type": "function"
    },
    {
      "inputs": [
        {
          "internalType": "uint256",
          "name": "taskId",
          "type": "uint256"
        }
      ],
      "name": "readTask",
      "outputs": [
        {
          "components": [
            {
              "internalType": "uint256",
              "name": "index",
              "type": "uint256"
            },
            {
              "internalType": "string",
              "name": "taskName",
              "type": "string"
            },
            {
              "internalType": "bool",
              "name": "isComplete",
              "type": "bool"
            }
          ],
          "internalType": "struct TodoContract.Task",
          "name": "task",
          "type": "tuple"
        }
      ],
      "stateMutability": "view",
      "type": "function"
    },
    {
      "inputs": [],
      "name": "taskCount",
      "outputs": [
        {
          "internalType": "uint256",
          "name": "",
          "type": "uint256"
        }
      ],
      "stateMutability": "view",
      "type": "function"
    },
    {
      "inputs": [
        {
          "internalType": "uint256",
          "name": "",
          "type": "uint256"
        }
      ],
      "name": "todos",
      "outputs": [
        {
          "internalType": "uint256",
          "name": "index",
          "type": "uint256"
        },
        {
          "internalType": "string",
          "name": "taskName",
          "type": "string"
        },
        {
          "internalType": "bool",
          "name": "isComplete",
          "type": "bool"
        }
      ],
      "stateMutability": "view",
      "type": "function"
    },
    {
      "inputs": [
        {
          "internalType": "uint256",
          "name": "_taskId",
          "type": "uint256"
        }
      ],
      "name": "toggleComplete",
      "outputs": [],
      "stateMutability": "nonpayable",
      "type": "function"
    },
    {
      "inputs": [
        {
          "internalType": "uint256",
          "name": "_taskId",
          "type": "uint256"
        },
        {
          "internalType": "string",
          "name": "_taskName",
          "type": "string"
        }
      ],
      "name": "updateTask",
      "outputs": [],
      "stateMutability": "nonpayable",
      "type": "function"
    }
  ],
  "bytecode": "0x60806040526000805534801561001457600080fd5b50611085806100246000396000f3fe608060405234801561001057600080fd5b506004361061007d5760003560e01c806386533f6c1161005b57806386533f6c146100d6578063ab755faf146100f2578063b6cb58a514610122578063bc8bc2b4146101405761007d565b80630951e5bd14610082578063111002aa1461009e578063560f3192146100ba575b600080fd5b61009c60048036038101906100979190610864565b610172565b005b6100b860048036038101906100b391906109d7565b61030f565b005b6100d460048036038101906100cf9190610864565b6103e7565b005b6100f060048036038101906100eb9190610a20565b610463565b005b61010c60048036038101906101079190610864565b6105f1565b6040516101199190610b75565b60405180910390f35b61012a6106d5565b6040516101379190610ba6565b60405180910390f35b61015a60048036038101906101559190610864565b6106db565b60405161016993929190610c1a565b60405180910390f35b600060016000838152602001908152602001600020604051806060016040529081600082015481526020016001820180546101ac90610c87565b80601f01602080910402602001604051908101604052809291908181526020018280546101d890610c87565b80156102255780601f106101fa57610100808354040283529160200191610225565b820191906000526020600020905b81548152906001019060200180831161020857829003601f168201915b505050505081526020016002820160009054906101000a900460ff16151515158152505090506040518060600160405280838152602001826020015181526020018260400151151515815250600160008481526020019081526020016000206000820151816000015560208201518160010190816102a39190610e64565b5060408201518160020160006101000a81548160ff0219169083151502179055509050507f21d25b1182ece704b24eedd00ef3879b75f4bd2e9a3137cfde0c6405b28ce78c81602001518383604001511560405161030393929190610f36565b60405180910390a15050565b604051806060016040528060005481526020018281526020016000151581525060016000805481526020019081526020016000206000820151816000015560208201518160010190816103629190610e64565b5060408201518160020160006101000a81548160ff02191690831515021790555090505060008081548092919061039890610fa3565b91905055507fed1d390c812a65783a09786b88b832ef75bb16882fbc56eeea9bf61a4c1a8ac78160016000546103ce9190610feb565b6040516103dc92919061101f565b60405180910390a150565b60016000828152602001908152602001600020600080820160009055600182016000610413919061079a565b6002820160006101000a81549060ff021916905550507fd078b251d950cc55c44340be1db732337ef4939a76e1367ee271ad2cb19c46af816040516104589190610ba6565b60405180910390a150565b6000600160008481526020019081526020016000206040518060600160405290816000820154815260200160018201805461049d90610c87565b80601f01602080910402602001604051908101604052809291908181526020018280546104c990610c87565b80156105165780601f106104eb57610100808354040283529160200191610516565b820191906000526020600020905b8154815290600101906020018083116104f957829003601f168201915b505050505081526020016002820160009054906101000a900460ff16151515158152505090506040518060600160405280848152602001838152602001826040015115158152506001600085815260200190815260200160002060008201518160000155602082015181600101908161058f9190610e64565b5060408201518160020160006101000a81548160ff0219169083151502179055509050507fa19b2211615873e8fbe860460ba43e467bf8f2d28d98b023144fc0739af842cd82846040516105e492919061101f565b60405180910390a1505050565b6105f96107da565b600160008381526020019081526020016000206040518060600160405290816000820154815260200160018201805461063190610c87565b80601f016020809104026020016040519081016040528092919081815260200182805461065d90610c87565b80156106aa5780601f1061067f576101008083540402835291602001916106aa565b820191906000526020600020905b81548152906001019060200180831161068d57829003601f168201915b505050505081526020016002820160009054906101000a900460ff1615151515815250509050919050565b60005481565b600160205280600052604060002060009150905080600001549080600101805461070490610c87565b80601f016020809104026020016040519081016040528092919081815260200182805461073090610c87565b801561077d5780601f106107525761010080835404028352916020019161077d565b820191906000526020600020905b81548152906001019060200180831161076057829003601f168201915b5050505050908060020160009054906101000a900460ff16905083565b5080546107a690610c87565b6000825580601f106107b857506107d7565b601f0160209004906000526020600020908101906107d691906107fd565b5b50565b604051806060016040528060008152602001606081526020016000151581525090565b5b808211156108165760008160009055506001016107fe565b5090565b6000604051905090565b600080fd5b600080fd5b6000819050919050565b6108418161082e565b811461084c57600080fd5b50565b60008135905061085e81610838565b92915050565b60006020828403121561087a57610879610824565b5b60006108888482850161084f565b91505092915050565b600080fd5b600080fd5b6000601f19601f8301169050919050565b7f4e487b7100000000000000000000000000000000000000000000000000000000600052604160045260246000fd5b6108e48261089b565b810181811067ffffffffffffffff82111715610903576109026108ac565b5b80604052505050565b600061091661081a565b905061092282826108db565b919050565b600067ffffffffffffffff821115610942576109416108ac565b5b61094b8261089b565b9050602081019050919050565b82818337600083830152505050565b600061097a61097584610927565b61090c565b90508281526020810184848401111561099657610995610896565b5b6109a1848285610958565b509392505050565b600082601f8301126109be576109bd610891565b5b81356109ce848260208601610967565b91505092915050565b6000602082840312156109ed576109ec610824565b5b600082013567ffffffffffffffff811115610a0b57610a0a610829565b5b610a17848285016109a9565b91505092915050565b60008060408385031215610a3757610a36610824565b5b6000610a458582860161084f565b925050602083013567ffffffffffffffff811115610a6657610a65610829565b5b610a72858286016109a9565b9150509250929050565b610a858161082e565b82525050565b600081519050919050565b600082825260208201905092915050565b60005b83811015610ac5578082015181840152602081019050610aaa565b60008484015250505050565b6000610adc82610a8b565b610ae68185610a96565b9350610af6818560208601610aa7565b610aff8161089b565b840191505092915050565b60008115159050919050565b610b1f81610b0a565b82525050565b6000606083016000830151610b3d6000860182610a7c565b5060208301518482036020860152610b558282610ad1565b9150506040830151610b6a6040860182610b16565b508091505092915050565b60006020820190508181036000830152610b8f8184610b25565b905092915050565b610ba08161082e565b82525050565b6000602082019050610bbb6000830184610b97565b92915050565b600082825260208201905092915050565b6000610bdd82610a8b565b610be78185610bc1565b9350610bf7818560208601610aa7565b610c008161089b565b840191505092915050565b610c1481610b0a565b82525050565b6000606082019050610c2f6000830186610b97565b8181036020830152610c418185610bd2565b9050610c506040830184610c0b565b949350505050565b7f4e487b7100000000000000000000000000000000000000000000000000000000600052602260045260246000fd5b60006002820490506001821680610c9f57607f821691505b602082108103610cb257610cb1610c58565b5b50919050565b60008190508160005260206000209050919050565b60006020601f8301049050919050565b600082821b905092915050565b600060088302610d1a7fffffffffffffffffffffffffffffffffffffffffffffffffffffffffffffffff82610cdd565b610d248683610cdd565b95508019841693508086168417925050509392505050565b6000819050919050565b6000610d61610d5c610d578461082e565b610d3c565b61082e565b9050919050565b6000819050919050565b610d7b83610d46565b610d8f610d8782610d68565b848454610cea565b825550505050565b600090565b610da4610d97565b610daf818484610d72565b505050565b5b81811015610dd357610dc8600082610d9c565b600181019050610db5565b5050565b601f821115610e1857610de981610cb8565b610df284610ccd565b81016020851015610e01578190505b610e15610e0d85610ccd565b830182610db4565b50505b505050565b600082821c905092915050565b6000610e3b60001984600802610e1d565b1980831691505092915050565b6000610e548383610e2a565b9150826002028217905092915050565b610e6d82610a8b565b67ffffffffffffffff811115610e8657610e856108ac565b5b610e908254610c87565b610e9b828285610dd7565b600060209050601f831160018114610ece5760008415610ebc578287015190505b610ec68582610e48565b865550610f2e565b601f198416610edc86610cb8565b60005b82811015610f0457848901518255600182019150602085019450602081019050610edf565b86831015610f215784890151610f1d601f891682610e2a565b8355505b6001600288020188555050505b505050505050565b60006060820190508181036000830152610f508186610bd2565b9050610f5f6020830185610b97565b610f6c6040830184610c0b565b949350505050565b7f4e487b7100000000000000000000000000000000000000000000000000000000600052601160045260246000fd5b6000610fae8261082e565b91507fffffffffffffffffffffffffffffffffffffffffffffffffffffffffffffffff8203610fe057610fdf610f74565b5b600182019050919050565b6000610ff68261082e565b91506110018361082e565b925082820390508181111561101957611018610f74565b5b92915050565b600060408201905081810360008301526110398185610bd2565b90506110486020830184610b97565b939250505056fea2646970667358221220eba7a44b3e702c1442a200415b123b186538a5a08c10e425c91f8225ade25fe864736f6c63430008130033",
  "linkReferences": {},
  "deployedLinkReferences": {}
}